:1000000045C0000062C000006EC000005DC000007E
:100010005BC0000059C0000057C0000055C0000080
:1000200053C0000051C000004FC000004DC0000090
:100030004BC0000049C0000047C0000045C00000A0
:10004000ECC0000041C000003FC000003DC0000007
:100050003BC0000039C0000037C0000035C00000C0
:1000600033C0000031C000002FC000002DC00000D0
:100070002BC0000029C0000027C0000025C00000E0
:1000800023C0000021C000001FC0000011241FBEBB
:10009000CFEFD0E1DEBFCDBF11E0A0E0B1E0E2E5FF
:1000A000F1E100E00BBF02C007900D92A032B10752
:1000B000D9F721E0A0E2B1E001C01D92AA37B20752
:1000C000E1F734D00C94A7089BCF1F920F920FB684
:1000D0000F92112410924901109248010F900FBE07
:1000E0000F901F9018951F920F920FB60F92112428
:1000F0008F939F9381E090E0909349018093480112
:100100009F918F910F900FBE0F901F90189588E0D0
:1001100081BB10929B0098E890939A0096E0909390
:100120009D00109298008093990008958FEF8ABBEC
:100130001092610087BB11BA9FE092B98BBB8AE035
:1001400083B997E093BF91E097BF92EA9FBD99E191
:100150009EBD80936A0083E089BF80E487B987E809
:1001600086B98FE193E097BD86BD1BBC1ABC19BC54
:1001700018BCCDDF84E682BF7894809126019091EF
:1001800027010397D4F380912201909123010197D5
:10019000A1F71BBC1ABC19BC18BC80E090E0089504
:1001A000EBE9F0E0908195FFFDCF80939C000895EE
:1001B0000F931F93CF93DF93EC0199232CF48DE2DF
:1001C000EFDFD195C195D109CE0160E177E298D7F3
:1001D00008EE13E0B80194D780E3860FE1DFCE018B
:1001E000B8018ED704E610E0B8018AD780E3860F05
:1001F000D7DFCE01B80184D70AE010E0B80180D77C
:1002000080E3860FCDDFCE01B8017AD7805DC8DFED
:10021000DF91CF911F910F9108951F920F920FB60A
:100220000F9211240BB60F928F929F92AF92BF92B2
:10023000CF92DF92EF92FF920F931F932F933F93F2
:100240004F935F936F937F938F939F93AF93BF93DE
:10025000CF93DF93EF93FF9384E682BF1092370131
:10026000109236018091360190913701089724F55C
:100270008091360190913701806487B9369A349B1A
:10028000FECFE0913601F091370184B195B1EE0FC8
:10029000FF1FE659FE4F9183808380913601909134
:1002A0003701019690933701809336018091360192
:1002B000909137010897E4F28091480190914901AB
:1002C000892B09F0FDC01092370110923601809100
:1002D00036019091370108970CF074C0E091360117
:1002E000F0913701EE0FFF1FE659FE4F208131815B
:1002F000E0913601F0913701EE0FFF1FE85CFE4FF1
:100300008081918128173907ACF0E0913601F09196
:100310003701A0913601B0913701AA0FBB1FA65932
:10032000BE4F8D919C91EE0FFF1FE85CFE4F9183B5
:1003300080832BC0E0913601F0913701EE0FFF1F53
:10034000E659FE4F20813181E0913601F09137016D
:10035000EE0FFF1FE05FFE4F8081918182179307B0
:10036000A4F0E0913601F0913701A0913601B091EF
:100370003701AA0FBB1FA659BE4F8D919C91EE0F5E
:10038000FF1FE05FFE4F91838083E0913601F09183
:100390003701EE0FFF1FE659FE4F8081918108DF84
:1003A00080E2FEDE809136019091370101969093B4
:1003B000370180933601809136019091370108977B
:1003C0000CF48CCF109237011092360180913601D7
:1003D0009091370108974CF5E0913601F091370183
:1003E000EE0FFF1FE85CFE4F80819181E1DE80E22D
:1003F000D7DEE0913601F0913701EE0FFF1FE05F8D
:10040000FE4F80819181D4DE80E2CADE8091360188
:100410009091370101969093370180933601809136
:100420003601909137010897BCF28DE0B9DE109249
:10043000370110923601809136019091370108976B
:100440000CF01BC421E030E0E0913601F09137015F
:10045000EE0FFF1FE659FE4F80819181803293405D
:100460008CF480913601909137014BB3B90102C0F1
:10047000660F771F8A95E2F7CB01809590958423CC
:100480008BBB0EC080913601909137014BB3B901FF
:1004900002C0660F771F8A95E2F7CB01842B8BBBD6
:1004A00080913601909137010196909337018093A6
:1004B0003601809136019091370108972CF2DDC307
:1004C0008091480190914901019709F09EC38AE00B
:1004D00083B91092350110923401109237011092B5
:1004E0003601809136019091370108970CF0E0C0F9
:1004F000C1E0D0E00091360110913701E091360162
:10050000F0913701EE0FFF1FE659FE4F60817181B8
:10051000E0913601F0913701EE0FFF1FE05FFE4FD3
:1005200080819181E0913601F0913701EE0FFF1F3C
:10053000E85CFE4FE080F180E0913601F0913701F8
:10054000EE0FFF1FE05FFE4FC080D180681B790B6C
:10055000072E000C880B990BBCD44B015C01B70132
:100560006C197D09072E000C880B990BB2D49B01E6
:10057000AC01C501B40112D420E030E048EC52E4F3
:100580005CD5000F111F000F111FF801E65BFE4F35
:100590006083718382839383E0913601F091370108
:1005A000EE0FFF1FEE0FFF1FE65BFE4F60817181B4
:1005B0008281938120E030E04CE552E4EBD3882344
:1005C0008CF480913601909137012BB3AE0102C0BB
:1005D000440F551F8A95E2F7CA01809590958223B2
:1005E0008BBB0EC080913601909137012BB3BE01B9
:1005F00002C0660F771F8A95E2F7CB01822B8BBB77
:10060000E0913601F0913701EE0FFF1FEE0FFF1F53
:10061000E65BFE4F608171818281938127D4CB019B
:10062000C7DD80E2BDDDE0913601F0913701EE0FCC
:10063000FF1FEE0FFF1FE65BFE4FC080D180E28000
:10064000F380E0913601F0913701EE0FFF1FE0508B
:10065000FF4F608171810091340110913501072EA7
:10066000000C880B990B35D4A7019601E6D46B01D9
:100670007C01B801110F880B990B2BD49B01AC01A5
:10068000C701B60123D3F2D37093350160933401CF
:1006900080913601909137010196909337018093B4
:1006A0003601809136019091370108970CF422CFE2
:1006B00080913401909135017BDD8DE071DD809179
:1006C00026019091270103975CF01BBC1ABC19BC52
:1006D00018BC81E090E0909321018093200166C1D5
:1006E00060914A0170914B0180914C0190914D01B4
:1006F00020E030E04CE552E49CD418160CF08BC09E
:1007000060914E0170914F01809150019091510183
:1007100020E030E04CE552E48CD418160CF07BC09D
:100720006091520170915301809154019091550153
:1007300020E030E04CE552E47CD418160CF06BC09D
:100740006091560170915701809158019091590123
:1007500020E030E04CE552E46CD418160CF05BC09D
:1007600060915A0170915B0180915C0190915D01F3
:1007700020E030E04CE552E45CD418160CF04BC09D
:1007800060915E0170915F018091600190916101C3
:1007900020E030E04CE552E44CD418160CF03BC09D
:1007A0006091620170916301809164019091650193
:1007B00020E030E04CE552E43CD4181664F560913A
:1007C000660170916701809168019091690120E054
:1007D00030E04CE552E42DD41816ECF420912E01B3
:1007E00030912F0180912C0190912D01281739070C
:1007F0004CF080912E0190912F019BBD8ABD19BCB8
:1008000018BCD4C01BBC1ABC80912C0190912D0146
:1008100099BD88BDCBC060914A0170914B01809118
:100820004C0190914D0120E030E04CE552E4B2D211
:10083000882384F060914E0170914F0180915001A6
:100840009091510120E030E04CE552E4A3D288239E
:100850000CF045C06091560170915701809158018C
:100860009091590120E030E04CE552E4E2D31816B3
:10087000B4F560915A0170915B0180915C01909197
:100880005D0120E030E04CE552E4D3D318163CF58E
:1008900060916201709163018091640190916501A2
:1008A00020E030E04CE552E475D288237CF0609182
:1008B000660170916701809168019091690120E063
:1008C00030E04CE552E466D288234CF48FE193E0AB
:1008D0009BBD8ABD88EC90E099BD88BD67C08091C2
:1008E00034019091350123E030E0B90109D4CB0106
:1008F000885A9D4F90933301809332018091340147
:1009000090913501B901FCD388E592E0861B970BE5
:1009100090933101809330018091320190913301A5
:100920008F3193403CF08FE193E0909333018093BB
:1009300032010BC0809132019091330118161906D3
:1009400024F0109233011092320180913001909185
:1009500031018F3193403CF08FE193E0909331016E
:10096000809330010BC080913001909131011816B5
:10097000190624F010923101109230018091320159
:10098000909133019BBD8ABD8091300190913101DE
:1009900099BD88BD8AB59BB590932F0180932E0198
:1009A00088B599B590932D0180932C0160914A01EF
:1009B00070914B0180914C0190914D0120E030E00D
:1009C0004CE552E4E7D188230CF07DC060914E01E4
:1009D00070914F01809150019091510120E030E0E1
:1009E0004CE552E4D7D188230CF06DC060915201E0
:1009F00070915301809154019091550120E030E0B5
:100A00004CE552E4C7D188230CF05DC060915601DB
:100A100070915701809158019091590120E030E088
:100A20004CE552E4B7D188230CF04DC060915A01D7
:100A300070915B0180915C0190915D0120E030E05C
:100A40004CE552E4A7D188230CF03DC060915E01D3
:100A500070915F01809160019091610120E030E030
:100A60004CE552E497D1882374F56091620170914E
:100A70006301809164019091650120E030E04CE5D4
:100A800052E488D18823FCF460916601709167017B
:100A9000809168019091690120E030E04CE552E4DA
:100AA00079D1882384F481E090E0909325018093AC
:100AB00024018091260190912701892B21F4109225
:100AC0002B0110922A018091240190912501019718
:100AD00009F06AC060914A0170914B0180914C010C
:100AE00090914D0120E030E04CE552E4A2D218167E
:100AF0000CF05AC060914E0170914F0180915001ED
:100B00009091510120E030E04CE552E492D2181669
:100B10000CF04AC0609152017091530180915401D0
:100B20009091550120E030E04CE552E482D2181655
:100B30000CF03AC060915E0170915F01809160019C
:100B40009091610120E030E04CE552E472D2181639
:100B50005CF56091620170916301809164019091F4
:100B6000650120E030E04CE552E463D21816E4F46D
:100B700060916601709167018091680190916901AF
:100B800020E030E04CE552E454D218166CF4809129
:100B900026019091270101969093270180932601C9
:100BA000109225011092240180912A0190912B012D
:100BB000883C910541F41092270110922601109271
:100BC0002B0110922A0180912A0190912B0101960C
:100BD00090932B0180932A01809126019091270107
:100BE000019709F04AC0809120019091210101975D
:100BF00009F043C082E090E090934901809348015E
:100C0000109229011092280138C0809148019091DA
:100C10004901029791F5109227011092260189E06F
:100C200083B98CEB92E09BBD8ABD99BD88BD809154
:100C300028019091290182389105C9F460916601DB
:100C400070916701809168019091690120E030E026
:100C50004CE552E4EED1181654F481E090E0909304
:100C6000490180934801109221011092200181E0F6
:100C700090E090932301809322018091280190912C
:100C8000290101969093290180932801FF91EF910A
:100C9000DF91CF91BF91AF919F918F917F916F9194
:100CA0005F914F913F912F911F910F91FF90EF9086
:100CB000DF90CF90BF90AF909F908F900F900BBE22
:100CC0000F900FBE0F901F9018955058BB27AA2762
:100CD0000ED075C166D130F06BD120F031F49F3F5A
:100CE00011F41EF45BC10EF4E095E7FB51C1E92F4E
:100CF00077D180F3BA17620773078407950718F056
:100D000071F49EF58FC10EF4E0950B2EBA2FA02D35
:100D10000B01B90190010C01CA01A0011124FF27A8
:100D2000591B99F0593F50F4503E68F11A16F040A3
:100D3000A22F232F342F4427585FF3CF46953795A2
:100D40002795A795F0405395C9F77EF41F16BA0B67
:100D5000620B730B840BBAF09150A1F0FF0FBB1F15
:100D6000661F771F881FC2F70EC0BA0F621F731F5E
:100D7000841F48F4879577956795B795F7959E3FBB
:100D800008F0B3CF9395880F08F09927EE0F979549
:100D900087950895D9D008F481E008950CD00FC14B
:100DA00007D140F0FED030F021F45F3F19F0F0C0E1
:100DB000511139C1F3C014D198F39923C9F35523C4
:100DC000B1F3951B550BBB27AA276217730784073E
:100DD00038F09F5F5F4F220F331F441FAA1FA9F3F4
:100DE00033D00E2E3AF0E0E830D091505040E695E6
:100DF000001CCAF729D0FE2F27D0660F771F881F47
:100E0000BB1F261737074807AB07B0E809F0BB0B35
:100E1000802DBF01FF2793585F4F2AF09E3F510559
:100E200068F0B6C000C15F3FECF3983EDCF38695F6
:100E300077956795B795F7959F5FC9F7880F911DCF
:100E40009695879597F90895E1E0660F771F881FBB
:100E5000BB1F621773078407BA0720F0621B730B6E
:100E6000840BBA0BEE1F88F7E095089504D06894C0
:100E7000B111D9C00895BCD088F09F5790F0B92F18
:100E80009927B751A0F0D1F0660F771F881F991FDF
:100E90001AF0BA95C9F712C0B13081F0C3D0B1E0F1
:100EA0000895C0C0672F782F8827B85F39F0B93F01
:100EB000CCF3869577956795B395D9F73EF49095E1
:100EC0008095709561957F4F8F4F9F4F0895E8945F
:100ED00009C097FB3EF490958095709561957F4F82
:100EE0008F4F9F4F9923A9F0F92F96E9BB27939530
:100EF000F695879577956795B795F111F8CFFAF440
:100F0000BB0F11F460FF1BC06F5F7F4F8F4F9F4F70
:100F100016C0882311F096E911C0772321F09EE8CE
:100F2000872F762F05C0662371F096E8862F70E034
:100F300060E02AF09A95660F771F881FDAF7880F0E
:100F40009695879597F90895990F0008550FAA0B64
:100F5000E0E8FEEF16161706E807F907C0F01216CC
:100F60001306E407F50798F0621B730B840B950BCF
:100F700039F40A2661F0232B242B252B21F4089524
:100F80000A2609F4A140A6958FEF811D811D0895C1
:100F900097F99F6780E870E060E008959FEF80EC2C
:100FA000089500240A9416161706180609060895CF
:100FB00000240A9412161306140605060895092E35
:100FC0000394000C11F4882352F0BB0F40F4BF2BA4
:100FD00011F460FF04C06F5F7F4F8F4F9F4F0895E4
:100FE00057FD9058440F551F59F05F3F71F04795DA
:100FF000880F97FB991F61F09F3F79F087950895BF
:10100000121613061406551FF2CF4695F1DF08C0DD
:10101000161617061806991FF1CF869571056105FA
:1010200008940895E894BB2766277727CB0197F9A2
:1010300008958ADF08F48FEF08950BD0C0CFB1DF99
:1010400028F0B6DF18F0952309F0A2CFA7CF11241E
:10105000EACFC6DFA0F3959FD1F3950F50E0551F5F
:10106000629FF001729FBB27F00DB11D639FAA27FD
:10107000F00DB11DAA1F649F6627B00DA11D661F4C
:10108000829F2227B00DA11D621F739FB00DA11D6D
:10109000621F839FA00D611D221F749F3327A00D27
:1010A000611D231F849F600D211D822F762F6A2FC3
:1010B00011249F5750408AF0E1F088234AF0EE0F48
:1010C000FF1FBB1F661F771F881F91505040A9F755
:1010D0009E3F510570F05CCFA6CF5F3FECF3983E8A
:1010E000DCF3869577956795B795F795E7959F5FBC
:1010F000C1F7FE2B880F911D9695879597F9089556
:1011000097FB072E16F4009406D077FD08D00BD07D
:1011100007FC05D03EF4909581959F4F08957095FA
:1011200061957F4F0895AA1BBB1B51E107C0AA1F01
:10113000BB1FA617B70710F0A61BB70B881F991F78
:101140005A95A9F780959095BC01CD010895F89422
:02115000FFCFCF
:10115200F8FFFCFFFEFFFFFF010002000400080091
:10116200000400040004000400040004000400045D
:00000001FF
